{
  "_format": "hh-sol-artifact-1",
  "contractName": "Emoji",
  "sourceName": "contracts/Emoji.sol",
  "abi": [
    {
      "inputs": [],
      "stateMutability": "nonpayable",
      "type": "constructor"
    },
    {
      "anonymous": false,
      "inputs": [
        {
          "indexed": true,
          "internalType": "address",
          "name": "owner",
          "type": "address"
        },
        {
          "indexed": true,
          "internalType": "address",
          "name": "approved",
          "type": "address"
        },
        {
          "indexed": true,
          "internalType": "uint256",
          "name": "tokenId",
          "type": "uint256"
        }
      ],
      "name": "Approval",
      "type": "event"
    },
    {
      "anonymous": false,
      "inputs": [
        {
          "indexed": true,
          "internalType": "address",
          "name": "owner",
          "type": "address"
        },
        {
          "indexed": true,
          "internalType": "address",
          "name": "operator",
          "type": "address"
        },
        {
          "indexed": false,
          "internalType": "bool",
          "name": "approved",
          "type": "bool"
        }
      ],
      "name": "ApprovalForAll",
      "type": "event"
    },
    {
      "anonymous": false,
      "inputs": [
        {
          "indexed": true,
          "internalType": "address",
          "name": "from",
          "type": "address"
        },
        {
          "indexed": true,
          "internalType": "address",
          "name": "to",
          "type": "address"
        },
        {
          "indexed": true,
          "internalType": "uint256",
          "name": "tokenId",
          "type": "uint256"
        }
      ],
      "name": "Transfer",
      "type": "event"
    },
    {
      "inputs": [
        {
          "internalType": "address",
          "name": "to",
          "type": "address"
        },
        {
          "internalType": "uint256",
          "name": "tokenId",
          "type": "uint256"
        }
      ],
      "name": "approve",
      "outputs": [],
      "stateMutability": "nonpayable",
      "type": "function"
    },
    {
      "inputs": [
        {
          "internalType": "address",
          "name": "owner",
          "type": "address"
        }
      ],
      "name": "balanceOf",
      "outputs": [
        {
          "internalType": "uint256",
          "name": "",
          "type": "uint256"
        }
      ],
      "stateMutability": "view",
      "type": "function"
    },
    {
      "inputs": [
        {
          "components": [
            {
              "internalType": "string",
              "name": "stringData",
              "type": "string"
            },
            {
              "internalType": "address",
              "name": "targetAddress",
              "type": "address"
            },
            {
              "internalType": "int256",
              "name": "x",
              "type": "int256"
            },
            {
              "internalType": "int256",
              "name": "y",
              "type": "int256"
            },
            {
              "internalType": "string",
              "name": "tokenURI",
              "type": "string"
            }
          ],
          "internalType": "struct Emoji.MintNFTData[]",
          "name": "mintNftDataArr",
          "type": "tuple[]"
        }
      ],
      "name": "batchMint",
      "outputs": [
        {
          "components": [
            {
              "internalType": "uint256",
              "name": "tokenId",
              "type": "uint256"
            },
            {
              "internalType": "string",
              "name": "stringData",
              "type": "string"
            },
            {
              "internalType": "address",
              "name": "targetAddress",
              "type": "address"
            },
            {
              "internalType": "int256",
              "name": "x",
              "type": "int256"
            },
            {
              "internalType": "int256",
              "name": "y",
              "type": "int256"
            }
          ],
          "internalType": "struct Emoji.NFTData[]",
          "name": "",
          "type": "tuple[]"
        }
      ],
      "stateMutability": "nonpayable",
      "type": "function"
    },
    {
      "inputs": [
        {
          "internalType": "uint256",
          "name": "tokenId",
          "type": "uint256"
        }
      ],
      "name": "getApproved",
      "outputs": [
        {
          "internalType": "address",
          "name": "",
          "type": "address"
        }
      ],
      "stateMutability": "view",
      "type": "function"
    },
    {
      "inputs": [
        {
          "internalType": "int256",
          "name": "x",
          "type": "int256"
        },
        {
          "internalType": "int256",
          "name": "y",
          "type": "int256"
        }
      ],
      "name": "getNFTByCoordinates",
      "outputs": [
        {
          "components": [
            {
              "internalType": "uint256",
              "name": "tokenId",
              "type": "uint256"
            },
            {
              "internalType": "string",
              "name": "stringData",
              "type": "string"
            },
            {
              "internalType": "address",
              "name": "targetAddress",
              "type": "address"
            },
            {
              "internalType": "int256",
              "name": "x",
              "type": "int256"
            },
            {
              "internalType": "int256",
              "name": "y",
              "type": "int256"
            }
          ],
          "internalType": "struct Emoji.NFTData",
          "name": "",
          "type": "tuple"
        }
      ],
      "stateMutability": "view",
      "type": "function"
    },
    {
      "inputs": [
        {
          "internalType": "uint256",
          "name": "tokenId",
          "type": "uint256"
        }
      ],
      "name": "getNFTById",
      "outputs": [
        {
          "components": [
            {
              "internalType": "uint256",
              "name": "tokenId",
              "type": "uint256"
            },
            {
              "internalType": "string",
              "name": "stringData",
              "type": "string"
            },
            {
              "internalType": "address",
              "name": "targetAddress",
              "type": "address"
            },
            {
              "internalType": "int256",
              "name": "x",
              "type": "int256"
            },
            {
              "internalType": "int256",
              "name": "y",
              "type": "int256"
            }
          ],
          "internalType": "struct Emoji.NFTData",
          "name": "",
          "type": "tuple"
        }
      ],
      "stateMutability": "view",
      "type": "function"
    },
    {
      "inputs": [
        {
          "internalType": "int256",
          "name": "x1",
          "type": "int256"
        },
        {
          "internalType": "int256",
          "name": "y1",
          "type": "int256"
        },
        {
          "internalType": "int256",
          "name": "x2",
          "type": "int256"
        },
        {
          "internalType": "int256",
          "name": "y2",
          "type": "int256"
        }
      ],
      "name": "getNFTsInRectangle",
      "outputs": [
        {
          "components": [
            {
              "internalType": "uint256",
              "name": "tokenId",
              "type": "uint256"
            },
            {
              "internalType": "string",
              "name": "stringData",
              "type": "string"
            },
            {
              "internalType": "address",
              "name": "targetAddress",
              "type": "address"
            },
            {
              "internalType": "int256",
              "name": "x",
              "type": "int256"
            },
            {
              "internalType": "int256",
              "name": "y",
              "type": "int256"
            }
          ],
          "internalType": "struct Emoji.NFTData[][]",
          "name": "",
          "type": "tuple[][]"
        }
      ],
      "stateMutability": "view",
      "type": "function"
    },
    {
      "inputs": [
        {
          "internalType": "address",
          "name": "owner",
          "type": "address"
        },
        {
          "internalType": "address",
          "name": "operator",
          "type": "address"
        }
      ],
      "name": "isApprovedForAll",
      "outputs": [
        {
          "internalType": "bool",
          "name": "",
          "type": "bool"
        }
      ],
      "stateMutability": "view",
      "type": "function"
    },
    {
      "inputs": [
        {
          "components": [
            {
              "internalType": "string",
              "name": "stringData",
              "type": "string"
            },
            {
              "internalType": "address",
              "name": "targetAddress",
              "type": "address"
            },
            {
              "internalType": "int256",
              "name": "x",
              "type": "int256"
            },
            {
              "internalType": "int256",
              "name": "y",
              "type": "int256"
            },
            {
              "internalType": "string",
              "name": "tokenURI",
              "type": "string"
            }
          ],
          "internalType": "struct Emoji.MintNFTData",
          "name": "mintNftData",
          "type": "tuple"
        }
      ],
      "name": "mint",
      "outputs": [
        {
          "components": [
            {
              "internalType": "uint256",
              "name": "tokenId",
              "type": "uint256"
            },
            {
              "internalType": "string",
              "name": "stringData",
              "type": "string"
            },
            {
              "internalType": "address",
              "name": "targetAddress",
              "type": "address"
            },
            {
              "internalType": "int256",
              "name": "x",
              "type": "int256"
            },
            {
              "internalType": "int256",
              "name": "y",
              "type": "int256"
            }
          ],
          "internalType": "struct Emoji.NFTData",
          "name": "",
          "type": "tuple"
        }
      ],
      "stateMutability": "nonpayable",
      "type": "function"
    },
    {
      "inputs": [],
      "name": "name",
      "outputs": [
        {
          "internalType": "string",
          "name": "",
          "type": "string"
        }
      ],
      "stateMutability": "view",
      "type": "function"
    },
    {
      "inputs": [
        {
          "internalType": "uint256",
          "name": "tokenId",
          "type": "uint256"
        }
      ],
      "name": "ownerOf",
      "outputs": [
        {
          "internalType": "address",
          "name": "",
          "type": "address"
        }
      ],
      "stateMutability": "view",
      "type": "function"
    },
    {
      "inputs": [
        {
          "internalType": "address",
          "name": "from",
          "type": "address"
        },
        {
          "internalType": "address",
          "name": "to",
          "type": "address"
        },
        {
          "internalType": "uint256",
          "name": "tokenId",
          "type": "uint256"
        }
      ],
      "name": "safeTransferFrom",
      "outputs": [],
      "stateMutability": "nonpayable",
      "type": "function"
    },
    {
      "inputs": [
        {
          "internalType": "address",
          "name": "from",
          "type": "address"
        },
        {
          "internalType": "address",
          "name": "to",
          "type": "address"
        },
        {
          "internalType": "uint256",
          "name": "tokenId",
          "type": "uint256"
        },
        {
          "internalType": "bytes",
          "name": "data",
          "type": "bytes"
        }
      ],
      "name": "safeTransferFrom",
      "outputs": [],
      "stateMutability": "nonpayable",
      "type": "function"
    },
    {
      "inputs": [
        {
          "internalType": "address",
          "name": "operator",
          "type": "address"
        },
        {
          "internalType": "bool",
          "name": "approved",
          "type": "bool"
        }
      ],
      "name": "setApprovalForAll",
      "outputs": [],
      "stateMutability": "nonpayable",
      "type": "function"
    },
    {
      "inputs": [
        {
          "internalType": "bytes4",
          "name": "interfaceId",
          "type": "bytes4"
        }
      ],
      "name": "supportsInterface",
      "outputs": [
        {
          "internalType": "bool",
          "name": "",
          "type": "bool"
        }
      ],
      "stateMutability": "view",
      "type": "function"
    },
    {
      "inputs": [],
      "name": "symbol",
      "outputs": [
        {
          "internalType": "string",
          "name": "",
          "type": "string"
        }
      ],
      "stateMutability": "view",
      "type": "function"
    },
    {
      "inputs": [
        {
          "internalType": "uint256",
          "name": "tokenId",
          "type": "uint256"
        }
      ],
      "name": "tokenURI",
      "outputs": [
        {
          "internalType": "string",
          "name": "",
          "type": "string"
        }
      ],
      "stateMutability": "view",
      "type": "function"
    },
    {
      "inputs": [
        {
          "internalType": "address",
          "name": "from",
          "type": "address"
        },
        {
          "internalType": "address",
          "name": "to",
          "type": "address"
        },
        {
          "internalType": "uint256",
          "name": "tokenId",
          "type": "uint256"
        }
      ],
      "name": "transferFrom",
      "outputs": [],
      "stateMutability": "nonpayable",
      "type": "function"
    }
  ],
  "bytecode": "0x60806040523480156200001157600080fd5b5060405180604001604052806005815260200164456d6f6a6960d81b81525060405180604001604052806005815260200164454d4f4a4960d81b81525081600090805190602001906200006692919062000085565b5080516200007c90600190602084019062000085565b50505062000168565b82805462000093906200012b565b90600052602060002090601f016020900481019282620000b7576000855562000102565b82601f10620000d257805160ff191683800117855562000102565b8280016001018555821562000102579182015b8281111562000102578251825591602001919060010190620000e5565b506200011092915062000114565b5090565b5b8082111562000110576000815560010162000115565b600181811c908216806200014057607f821691505b602082108114156200016257634e487b7160e01b600052602260045260246000fd5b50919050565b61214a80620001786000396000f3fe608060405234801561001057600080fd5b50600436106101165760003560e01c806395d89b41116100a2578063adbe5b1211610071578063adbe5b1214610260578063b88d4fde14610280578063c87b56dd14610293578063d6422005146102a6578063e985e9c5146102b957600080fd5b806395d89b41146102125780639e0d8c221461021a578063a168b8051461023a578063a22cb4651461024d57600080fd5b806323b872dd116100e957806323b872dd1461019857806336b0cd79146101ab57806342842e0e146101cb5780636352211e146101de57806370a08231146101f157600080fd5b806301ffc9a71461011b57806306fdde0314610143578063081812fc14610158578063095ea7b314610183575b600080fd5b61012e610129366004611875565b6102f5565b60405190151581526020015b60405180910390f35b61014b610347565b60405161013a91906118ea565b61016b6101663660046118fd565b6103d9565b6040516001600160a01b03909116815260200161013a565b610196610191366004611932565b610400565b005b6101966101a636600461195c565b61051b565b6101be6101b9366004611998565b61054c565b60405161013a9190611a0b565b6101966101d936600461195c565b610697565b61016b6101ec3660046118fd565b6106b2565b6102046101ff366004611a1e565b610712565b60405190815260200161013a565b61014b610798565b61022d610228366004611a39565b6107a7565b60405161013a9190611ac0565b6101be6102483660046118fd565b6109f2565b61019661025b366004611b22565b610b3d565b61027361026e366004611ccc565b610b4c565b60405161013a9190611d8f565b61019661028e366004611da2565b610c0b565b61014b6102a13660046118fd565b610c43565b6101be6102b4366004611e1e565b610d4c565b61012e6102c7366004611e53565b6001600160a01b03918216600090815260056020908152604080832093909416825291909152205460ff1690565b60006001600160e01b031982166380ac58cd60e01b148061032657506001600160e01b03198216635b5e139f60e01b145b8061034157506301ffc9a760e01b6001600160e01b03198316145b92915050565b60606000805461035690611e86565b80601f016020809104026020016040519081016040528092919081815260200182805461038290611e86565b80156103cf5780601f106103a4576101008083540402835291602001916103cf565b820191906000526020600020905b8154815290600101906020018083116103b257829003601f168201915b5050505050905090565b60006103e482610ec2565b506000908152600460205260409020546001600160a01b031690565b600061040b826106b2565b9050806001600160a01b0316836001600160a01b0316141561047e5760405162461bcd60e51b815260206004820152602160248201527f4552433732313a20617070726f76616c20746f2063757272656e74206f776e656044820152603960f91b60648201526084015b60405180910390fd5b336001600160a01b038216148061049a575061049a81336102c7565b61050c5760405162461bcd60e51b815260206004820152603d60248201527f4552433732313a20617070726f76652063616c6c6572206973206e6f7420746f60448201527f6b656e206f776e6572206f7220617070726f76656420666f7220616c6c0000006064820152608401610475565b6105168383610f24565b505050565b6105253382610f92565b6105415760405162461bcd60e51b815260040161047590611ec1565b610516838383611010565b61055461178e565b6000838152600960209081526040808320858452909152902054806105ad5750506040805160a0810182526000808252825160208181018552828252830152918101919091526060810183905260808101829052610341565b600860008281526020019081526020016000206040518060a0016040529081600082015481526020016001820180546105e590611e86565b80601f016020809104026020016040519081016040528092919081815260200182805461061190611e86565b801561065e5780601f106106335761010080835404028352916020019161065e565b820191906000526020600020905b81548152906001019060200180831161064157829003601f168201915b505050918352505060028201546001600160a01b0316602082015260038201546040820152600490910154606090910152949350505050565b61051683838360405180602001604052806000815250610c0b565b6000818152600260205260408120546001600160a01b0316806103415760405162461bcd60e51b8152602060048201526018602482015277115490cdcc8c4e881a5b9d985b1a59081d1bdad95b88125160421b6044820152606401610475565b60006001600160a01b03821661077c5760405162461bcd60e51b815260206004820152602960248201527f4552433732313a2061646472657373207a65726f206973206e6f7420612076616044820152683634b21037bbb732b960b91b6064820152608401610475565b506001600160a01b031660009081526003602052604090205490565b60606001805461035690611e86565b60608483121580156107b95750838212155b6107f55760405162461bcd60e51b815260206004820152600d60248201526c496e76616c69642072616e676560981b6044820152606401610475565b60006108018584611f24565b61080c906001611f63565b9050600061081a8786611f24565b610825906001611f63565b905060006108338284611fa4565b90506101f48111156108875760405162461bcd60e51b815260206004820152601a60248201527f52656374616e676c6520617265612065786365656473203530300000000000006044820152606401610475565b60008367ffffffffffffffff8111156108a2576108a2611b5e565b6040519080825280602002602001820160405280156108d557816020015b60608152602001906001900390816108c05790505b50905060005b848110156109e3578367ffffffffffffffff8111156108fc576108fc611b5e565b60405190808252806020026020018201604052801561093557816020015b61092261178e565b81526020019060019003908161091a5790505b5082828151811061094857610948611fc3565b6020908102919091010152600061095f8a83611f63565b905060005b858110156109ce5760006109788d83611f63565b9050610984818461054c565b85858151811061099657610996611fc3565b602002602001015183815181106109af576109af611fc3565b60200260200101819052505080806109c690611fd9565b915050610964565b505080806109db90611fd9565b9150506108db565b5093505050505b949350505050565b6109fa61178e565b6000828152600260205260409020546001600160a01b0316610a555760405162461bcd60e51b8152602060048201526014602482015273151bdad95b88191bd95cc81b9bdd08195e1a5cdd60621b6044820152606401610475565b600860008381526020019081526020016000206040518060a001604052908160008201548152602001600182018054610a8d90611e86565b80601f0160208091040260200160405190810160405280929190818152602001828054610ab990611e86565b8015610b065780601f10610adb57610100808354040283529160200191610b06565b820191906000526020600020905b815481529060010190602001808311610ae957829003601f168201915b505050918352505060028201546001600160a01b031660208201526003820154604082015260049091015460609091015292915050565b610b48338383611174565b5050565b60606000825167ffffffffffffffff811115610b6a57610b6a611b5e565b604051908082528060200260200182016040528015610ba357816020015b610b9061178e565b815260200190600190039081610b885790505b50905060005b8351811015610c0457610bd4848281518110610bc757610bc7611fc3565b6020026020010151610d4c565b828281518110610be657610be6611fc3565b60200260200101819052508080610bfc90611fd9565b915050610ba9565b5092915050565b610c153383610f92565b610c315760405162461bcd60e51b815260040161047590611ec1565b610c3d84848484611243565b50505050565b6060610c4e82610ec2565b60008281526006602052604081208054610c6790611e86565b80601f0160208091040260200160405190810160405280929190818152602001828054610c9390611e86565b8015610ce05780601f10610cb557610100808354040283529160200191610ce0565b820191906000526020600020905b815481529060010190602001808311610cc357829003601f168201915b505050505090506000610cfe60408051602081019091526000815290565b9050805160001415610d11575092915050565b815115610d43578082604051602001610d2b929190611ff4565b60405160208183030381529060405292505050919050565b6109ea84611276565b610d5461178e565b604080830151600090815260096020908152828220606086015183529052205415610dc15760405162461bcd60e51b815260206004820181905260248201527f5468697320636f6f7264696e61746520697320616c72656164792074616b656e6044820152606401610475565b610dcf600780546001019055565b6000610dda60075490565b9050610de633826112ea565b610df4818460800151611475565b6040805160a08101825282815284516020808301918252868101516001600160a01b03168385015286840151606080850191909152870151608084015260008581526008825293909320825181559051805192938493610e5a92600185019201906117c6565b506040828101516002830180546001600160a01b0319166001600160a01b039092169190911790556060808401516003840155608090930151600490920191909155858101516000908152600960209081528282209790930151815295909152909320555090565b6000818152600260205260409020546001600160a01b0316610f215760405162461bcd60e51b8152602060048201526018602482015277115490cdcc8c4e881a5b9d985b1a59081d1bdad95b88125160421b6044820152606401610475565b50565b600081815260046020526040902080546001600160a01b0319166001600160a01b0384169081179091558190610f59826106b2565b6001600160a01b03167f8c5be1e5ebec7d5bd14f71427d1e84f3dd0314c0f7b2291e5b200ac8c7c3b92560405160405180910390a45050565b600080610f9e836106b2565b9050806001600160a01b0316846001600160a01b03161480610fe557506001600160a01b0380821660009081526005602090815260408083209388168352929052205460ff165b806109ea5750836001600160a01b0316610ffe846103d9565b6001600160a01b031614949350505050565b826001600160a01b0316611023826106b2565b6001600160a01b0316146110495760405162461bcd60e51b815260040161047590612023565b6001600160a01b0382166110ab5760405162461bcd60e51b8152602060048201526024808201527f4552433732313a207472616e7366657220746f20746865207a65726f206164646044820152637265737360e01b6064820152608401610475565b826001600160a01b03166110be826106b2565b6001600160a01b0316146110e45760405162461bcd60e51b815260040161047590612023565b600081815260046020908152604080832080546001600160a01b03199081169091556001600160a01b0387811680865260038552838620805460001901905590871680865283862080546001019055868652600290945282852080549092168417909155905184937fddf252ad1be2c89b69c2b068fc378daa952ba7f163c4a11628f55a4df523b3ef91a4505050565b816001600160a01b0316836001600160a01b031614156111d65760405162461bcd60e51b815260206004820152601960248201527f4552433732313a20617070726f766520746f2063616c6c6572000000000000006044820152606401610475565b6001600160a01b03838116600081815260056020908152604080832094871680845294825291829020805460ff191686151590811790915591519182527f17307eab39ab6107e8899845ad3d59bd9653f200f220920489ca2b5937696c31910160405180910390a3505050565b61124e848484611010565b61125a8484848461150f565b610c3d5760405162461bcd60e51b815260040161047590612068565b606061128182610ec2565b600061129860408051602081019091526000815290565b905060008151116112b857604051806020016040528060008152506112e3565b806112c284611619565b6040516020016112d3929190611ff4565b6040516020818303038152906040525b9392505050565b6001600160a01b0382166113405760405162461bcd60e51b815260206004820181905260248201527f4552433732313a206d696e7420746f20746865207a65726f20616464726573736044820152606401610475565b6000818152600260205260409020546001600160a01b0316156113a55760405162461bcd60e51b815260206004820152601c60248201527f4552433732313a20746f6b656e20616c7265616479206d696e746564000000006044820152606401610475565b6000818152600260205260409020546001600160a01b03161561140a5760405162461bcd60e51b815260206004820152601c60248201527f4552433732313a20746f6b656e20616c7265616479206d696e746564000000006044820152606401610475565b6001600160a01b038216600081815260036020908152604080832080546001019055848352600290915280822080546001600160a01b0319168417905551839291907fddf252ad1be2c89b69c2b068fc378daa952ba7f163c4a11628f55a4df523b3ef908290a45050565b6000828152600260205260409020546001600160a01b03166114f05760405162461bcd60e51b815260206004820152602e60248201527f45524337323155524953746f726167653a2055524920736574206f66206e6f6e60448201526d32bc34b9ba32b73a103a37b5b2b760911b6064820152608401610475565b60008281526006602090815260409091208251610516928401906117c6565b60006001600160a01b0384163b1561161157604051630a85bd0160e11b81526001600160a01b0385169063150b7a02906115539033908990889088906004016120ba565b602060405180830381600087803b15801561156d57600080fd5b505af192505050801561159d575060408051601f3d908101601f1916820190925261159a918101906120f7565b60015b6115f7573d8080156115cb576040519150601f19603f3d011682016040523d82523d6000602084013e6115d0565b606091505b5080516115ef5760405162461bcd60e51b815260040161047590612068565b805181602001fd5b6001600160e01b031916630a85bd0160e11b1490506109ea565b5060016109ea565b60606000611626836116b6565b600101905060008167ffffffffffffffff81111561164657611646611b5e565b6040519080825280601f01601f191660200182016040528015611670576020820181803683370190505b5090508181016020015b600019016f181899199a1a9b1b9c1cb0b131b232b360811b600a86061a8153600a85049450846116a9576116ae565b61167a565b509392505050565b60008072184f03e93ff9f4daa797ed6e38ed64bf6a1f0160401b83106116f55772184f03e93ff9f4daa797ed6e38ed64bf6a1f0160401b830492506040015b6d04ee2d6d415b85acef81000000008310611721576d04ee2d6d415b85acef8100000000830492506020015b662386f26fc10000831061173f57662386f26fc10000830492506010015b6305f5e1008310611757576305f5e100830492506008015b612710831061176b57612710830492506004015b6064831061177d576064830492506002015b600a83106103415760010192915050565b6040518060a00160405280600081526020016060815260200160006001600160a01b0316815260200160008152602001600081525090565b8280546117d290611e86565b90600052602060002090601f0160209004810192826117f4576000855561183a565b82601f1061180d57805160ff191683800117855561183a565b8280016001018555821561183a579182015b8281111561183a57825182559160200191906001019061181f565b5061184692915061184a565b5090565b5b80821115611846576000815560010161184b565b6001600160e01b031981168114610f2157600080fd5b60006020828403121561188757600080fd5b81356112e38161185f565b60005b838110156118ad578181015183820152602001611895565b83811115610c3d5750506000910152565b600081518084526118d6816020860160208601611892565b601f01601f19169290920160200192915050565b6020815260006112e360208301846118be565b60006020828403121561190f57600080fd5b5035919050565b80356001600160a01b038116811461192d57600080fd5b919050565b6000806040838503121561194557600080fd5b61194e83611916565b946020939093013593505050565b60008060006060848603121561197157600080fd5b61197a84611916565b925061198860208501611916565b9150604084013590509250925092565b600080604083850312156119ab57600080fd5b50508035926020909101359150565b805182526000602082015160a060208501526119d960a08501826118be565b6040848101516001600160a01b0316908601526060808501519086015260809384015193909401929092525090919050565b6020815260006112e360208301846119ba565b600060208284031215611a3057600080fd5b6112e382611916565b60008060008060808587031215611a4f57600080fd5b5050823594602084013594506040840135936060013592509050565b600081518084526020808501808196508360051b8101915082860160005b85811015611ab3578284038952611aa18483516119ba565b98850198935090840190600101611a89565b5091979650505050505050565b6000602080830181845280855180835260408601915060408160051b870101925083870160005b82811015611b1557603f19888603018452611b03858351611a6b565b94509285019290850190600101611ae7565b5092979650505050505050565b60008060408385031215611b3557600080fd5b611b3e83611916565b915060208301358015158114611b5357600080fd5b809150509250929050565b634e487b7160e01b600052604160045260246000fd5b604051601f8201601f1916810167ffffffffffffffff81118282101715611b9d57611b9d611b5e565b604052919050565b600067ffffffffffffffff831115611bbf57611bbf611b5e565b611bd2601f8401601f1916602001611b74565b9050828152838383011115611be657600080fd5b828260208301376000602084830101529392505050565b600082601f830112611c0e57600080fd5b6112e383833560208501611ba5565b600060a08284031215611c2f57600080fd5b60405160a0810167ffffffffffffffff8282108183111715611c5357611c53611b5e565b816040528293508435915080821115611c6b57600080fd5b611c7786838701611bfd565b8352611c8560208601611916565b602084015260408501356040840152606085013560608401526080850135915080821115611cb257600080fd5b50611cbf85828601611bfd565b6080830152505092915050565b60006020808385031215611cdf57600080fd5b823567ffffffffffffffff80821115611cf757600080fd5b818501915085601f830112611d0b57600080fd5b813581811115611d1d57611d1d611b5e565b8060051b611d2c858201611b74565b9182528381018501918581019089841115611d4657600080fd5b86860192505b83831015611d8257823585811115611d645760008081fd5b611d728b89838a0101611c1d565b8352509186019190860190611d4c565b9998505050505050505050565b6020815260006112e36020830184611a6b565b60008060008060808587031215611db857600080fd5b611dc185611916565b9350611dcf60208601611916565b925060408501359150606085013567ffffffffffffffff811115611df257600080fd5b8501601f81018713611e0357600080fd5b611e1287823560208401611ba5565b91505092959194509250565b600060208284031215611e3057600080fd5b813567ffffffffffffffff811115611e4757600080fd5b6109ea84828501611c1d565b60008060408385031215611e6657600080fd5b611e6f83611916565b9150611e7d60208401611916565b90509250929050565b600181811c90821680611e9a57607f821691505b60208210811415611ebb57634e487b7160e01b600052602260045260246000fd5b50919050565b6020808252602d908201527f4552433732313a2063616c6c6572206973206e6f7420746f6b656e206f776e6560408201526c1c881bdc88185c1c1c9bdd9959609a1b606082015260800190565b634e487b7160e01b600052601160045260246000fd5b60008083128015600160ff1b850184121615611f4257611f42611f0e565b6001600160ff1b0384018313811615611f5d57611f5d611f0e565b50500390565b600080821280156001600160ff1b0384900385131615611f8557611f85611f0e565b600160ff1b8390038412811615611f9e57611f9e611f0e565b50500190565b6000816000190483118215151615611fbe57611fbe611f0e565b500290565b634e487b7160e01b600052603260045260246000fd5b6000600019821415611fed57611fed611f0e565b5060010190565b60008351612006818460208801611892565b83519083019061201a818360208801611892565b01949350505050565b60208082526025908201527f4552433732313a207472616e736665722066726f6d20696e636f72726563742060408201526437bbb732b960d91b606082015260800190565b60208082526032908201527f4552433732313a207472616e7366657220746f206e6f6e20455243373231526560408201527131b2b4bb32b91034b6b83632b6b2b73a32b960711b606082015260800190565b6001600160a01b03858116825284166020820152604081018390526080606082018190526000906120ed908301846118be565b9695505050505050565b60006020828403121561210957600080fd5b81516112e38161185f56fea264697066735822122054fd79bf5c199b904e4044727500a57b3c5fcbdf66c4c7faa7438652688a63f964736f6c63430008090033",
  "linkReferences": {},
  "deployedLinkReferences": {}
}